{
  "_format": "hh-sol-artifact-1",
  "contractName": "SupplyChain",
  "sourceName": "contracts/SupplyChain.sol",
  "abi": [
    {
      "inputs": [],
      "stateMutability": "nonpayable",
      "type": "constructor"
    },
    {
      "inputs": [],
      "name": "AccessControlBadConfirmation",
      "type": "error"
    },
    {
      "inputs": [
        {
          "internalType": "address",
          "name": "account",
          "type": "address"
        },
        {
          "internalType": "bytes32",
          "name": "neededRole",
          "type": "bytes32"
        }
      ],
      "name": "AccessControlUnauthorizedAccount",
      "type": "error"
    },
    {
      "anonymous": false,
      "inputs": [
        {
          "indexed": true,
          "internalType": "bytes32",
          "name": "role",
          "type": "bytes32"
        },
        {
          "indexed": true,
          "internalType": "bytes32",
          "name": "previousAdminRole",
          "type": "bytes32"
        },
        {
          "indexed": true,
          "internalType": "bytes32",
          "name": "newAdminRole",
          "type": "bytes32"
        }
      ],
      "name": "RoleAdminChanged",
      "type": "event"
    },
    {
      "anonymous": false,
      "inputs": [
        {
          "indexed": true,
          "internalType": "address",
          "name": "account",
          "type": "address"
        },
        {
          "indexed": true,
          "internalType": "bytes32",
          "name": "role",
          "type": "bytes32"
        }
      ],
      "name": "RoleAssigned",
      "type": "event"
    },
    {
      "anonymous": false,
      "inputs": [
        {
          "indexed": true,
          "internalType": "bytes32",
          "name": "role",
          "type": "bytes32"
        },
        {
          "indexed": true,
          "internalType": "address",
          "name": "account",
          "type": "address"
        },
        {
          "indexed": true,
          "internalType": "address",
          "name": "sender",
          "type": "address"
        }
      ],
      "name": "RoleGranted",
      "type": "event"
    },
    {
      "anonymous": false,
      "inputs": [
        {
          "indexed": true,
          "internalType": "bytes32",
          "name": "role",
          "type": "bytes32"
        },
        {
          "indexed": true,
          "internalType": "address",
          "name": "account",
          "type": "address"
        },
        {
          "indexed": true,
          "internalType": "address",
          "name": "sender",
          "type": "address"
        }
      ],
      "name": "RoleRevoked",
      "type": "event"
    },
    {
      "anonymous": false,
      "inputs": [
        {
          "indexed": true,
          "internalType": "address",
          "name": "account",
          "type": "address"
        },
        {
          "indexed": true,
          "internalType": "bytes32",
          "name": "role",
          "type": "bytes32"
        }
      ],
      "name": "RoleRevoked",
      "type": "event"
    },
    {
      "anonymous": false,
      "inputs": [
        {
          "indexed": true,
          "internalType": "uint256",
          "name": "shipmentId",
          "type": "uint256"
        },
        {
          "indexed": false,
          "internalType": "string",
          "name": "product",
          "type": "string"
        },
        {
          "indexed": false,
          "internalType": "address",
          "name": "sender",
          "type": "address"
        },
        {
          "indexed": false,
          "internalType": "address",
          "name": "receiver",
          "type": "address"
        }
      ],
      "name": "ShipmentCreated",
      "type": "event"
    },
    {
      "anonymous": false,
      "inputs": [
        {
          "indexed": true,
          "internalType": "uint256",
          "name": "shipmentId",
          "type": "uint256"
        },
        {
          "indexed": false,
          "internalType": "string",
          "name": "newStatus",
          "type": "string"
        },
        {
          "indexed": false,
          "internalType": "address",
          "name": "updater",
          "type": "address"
        }
      ],
      "name": "ShipmentStatusUpdated",
      "type": "event"
    },
    {
      "anonymous": false,
      "inputs": [
        {
          "indexed": true,
          "internalType": "uint256",
          "name": "shipmentId",
          "type": "uint256"
        },
        {
          "indexed": false,
          "internalType": "address",
          "name": "from",
          "type": "address"
        },
        {
          "indexed": false,
          "internalType": "address",
          "name": "to",
          "type": "address"
        }
      ],
      "name": "ShipmentTransferred",
      "type": "event"
    },
    {
      "inputs": [],
      "name": "ADMIN_ROLE",
      "outputs": [
        {
          "internalType": "bytes32",
          "name": "",
          "type": "bytes32"
        }
      ],
      "stateMutability": "view",
      "type": "function"
    },
    {
      "inputs": [],
      "name": "DEFAULT_ADMIN_ROLE",
      "outputs": [
        {
          "internalType": "bytes32",
          "name": "",
          "type": "bytes32"
        }
      ],
      "stateMutability": "view",
      "type": "function"
    },
    {
      "inputs": [],
      "name": "MANUFACTURER_ROLE",
      "outputs": [
        {
          "internalType": "bytes32",
          "name": "",
          "type": "bytes32"
        }
      ],
      "stateMutability": "view",
      "type": "function"
    },
    {
      "inputs": [],
      "name": "RETAILER_ROLE",
      "outputs": [
        {
          "internalType": "bytes32",
          "name": "",
          "type": "bytes32"
        }
      ],
      "stateMutability": "view",
      "type": "function"
    },
    {
      "inputs": [],
      "name": "SUPPLIER_ROLE",
      "outputs": [
        {
          "internalType": "bytes32",
          "name": "",
          "type": "bytes32"
        }
      ],
      "stateMutability": "view",
      "type": "function"
    },
    {
      "inputs": [],
      "name": "TRANSPORTER_ROLE",
      "outputs": [
        {
          "internalType": "bytes32",
          "name": "",
          "type": "bytes32"
        }
      ],
      "stateMutability": "view",
      "type": "function"
    },
    {
      "inputs": [
        {
          "internalType": "uint256",
          "name": "",
          "type": "uint256"
        }
      ],
      "name": "allShipmentIds",
      "outputs": [
        {
          "internalType": "uint256",
          "name": "",
          "type": "uint256"
        }
      ],
      "stateMutability": "view",
      "type": "function"
    },
    {
      "inputs": [
        {
          "internalType": "uint256",
          "name": "_id",
          "type": "uint256"
        },
        {
          "internalType": "string",
          "name": "_product",
          "type": "string"
        },
        {
          "internalType": "address",
          "name": "_receiver",
          "type": "address"
        }
      ],
      "name": "createShipment",
      "outputs": [],
      "stateMutability": "nonpayable",
      "type": "function"
    },
    {
      "inputs": [],
      "name": "getAllShipmentIds",
      "outputs": [
        {
          "internalType": "uint256[]",
          "name": "",
          "type": "uint256[]"
        }
      ],
      "stateMutability": "view",
      "type": "function"
    },
    {
      "inputs": [
        {
          "internalType": "bytes32",
          "name": "role",
          "type": "bytes32"
        }
      ],
      "name": "getRoleAdmin",
      "outputs": [
        {
          "internalType": "bytes32",
          "name": "",
          "type": "bytes32"
        }
      ],
      "stateMutability": "view",
      "type": "function"
    },
    {
      "inputs": [
        {
          "internalType": "address",
          "name": "account",
          "type": "address"
        }
      ],
      "name": "getRoles",
      "outputs": [
        {
          "internalType": "string",
          "name": "",
          "type": "string"
        }
      ],
      "stateMutability": "view",
      "type": "function"
    },
    {
      "inputs": [
        {
          "internalType": "uint256",
          "name": "_id",
          "type": "uint256"
        }
      ],
      "name": "getShipment",
      "outputs": [
        {
          "components": [
            {
              "internalType": "uint256",
              "name": "id",
              "type": "uint256"
            },
            {
              "internalType": "string",
              "name": "product",
              "type": "string"
            },
            {
              "internalType": "address",
              "name": "sender",
              "type": "address"
            },
            {
              "internalType": "address",
              "name": "receiver",
              "type": "address"
            },
            {
              "internalType": "address",
              "name": "currentOwner",
              "type": "address"
            },
            {
              "internalType": "string",
              "name": "status",
              "type": "string"
            },
            {
              "internalType": "uint256",
              "name": "createdAt",
              "type": "uint256"
            },
            {
              "internalType": "uint256",
              "name": "updatedAt",
              "type": "uint256"
            }
          ],
          "internalType": "struct SupplyChain.Shipment",
          "name": "",
          "type": "tuple"
        }
      ],
      "stateMutability": "view",
      "type": "function"
    },
    {
      "inputs": [],
      "name": "getShipmentCount",
      "outputs": [
        {
          "internalType": "uint256",
          "name": "",
          "type": "uint256"
        }
      ],
      "stateMutability": "view",
      "type": "function"
    },
    {
      "inputs": [
        {
          "internalType": "uint256",
          "name": "_id",
          "type": "uint256"
        }
      ],
      "name": "getStatusHistory",
      "outputs": [
        {
          "internalType": "string[]",
          "name": "",
          "type": "string[]"
        }
      ],
      "stateMutability": "view",
      "type": "function"
    },
    {
      "inputs": [
        {
          "internalType": "bytes32",
          "name": "role",
          "type": "bytes32"
        },
        {
          "internalType": "address",
          "name": "account",
          "type": "address"
        }
      ],
      "name": "grantRole",
      "outputs": [],
      "stateMutability": "nonpayable",
      "type": "function"
    },
    {
      "inputs": [
        {
          "internalType": "bytes32",
          "name": "role",
          "type": "bytes32"
        },
        {
          "internalType": "address",
          "name": "account",
          "type": "address"
        }
      ],
      "name": "hasRole",
      "outputs": [
        {
          "internalType": "bool",
          "name": "",
          "type": "bool"
        }
      ],
      "stateMutability": "view",
      "type": "function"
    },
    {
      "inputs": [
        {
          "internalType": "bytes32",
          "name": "role",
          "type": "bytes32"
        },
        {
          "internalType": "address",
          "name": "callerConfirmation",
          "type": "address"
        }
      ],
      "name": "renounceRole",
      "outputs": [],
      "stateMutability": "nonpayable",
      "type": "function"
    },
    {
      "inputs": [
        {
          "internalType": "bytes32",
          "name": "role",
          "type": "bytes32"
        },
        {
          "internalType": "address",
          "name": "account",
          "type": "address"
        }
      ],
      "name": "revokeRole",
      "outputs": [],
      "stateMutability": "nonpayable",
      "type": "function"
    },
    {
      "inputs": [],
      "name": "shipmentCount",
      "outputs": [
        {
          "internalType": "uint256",
          "name": "",
          "type": "uint256"
        }
      ],
      "stateMutability": "view",
      "type": "function"
    },
    {
      "inputs": [
        {
          "internalType": "uint256",
          "name": "",
          "type": "uint256"
        },
        {
          "internalType": "uint256",
          "name": "",
          "type": "uint256"
        }
      ],
      "name": "shipmentStatusHistory",
      "outputs": [
        {
          "internalType": "string",
          "name": "",
          "type": "string"
        }
      ],
      "stateMutability": "view",
      "type": "function"
    },
    {
      "inputs": [
        {
          "internalType": "uint256",
          "name": "",
          "type": "uint256"
        }
      ],
      "name": "shipments",
      "outputs": [
        {
          "internalType": "uint256",
          "name": "id",
          "type": "uint256"
        },
        {
          "internalType": "string",
          "name": "product",
          "type": "string"
        },
        {
          "internalType": "address",
          "name": "sender",
          "type": "address"
        },
        {
          "internalType": "address",
          "name": "receiver",
          "type": "address"
        },
        {
          "internalType": "address",
          "name": "currentOwner",
          "type": "address"
        },
        {
          "internalType": "string",
          "name": "status",
          "type": "string"
        },
        {
          "internalType": "uint256",
          "name": "createdAt",
          "type": "uint256"
        },
        {
          "internalType": "uint256",
          "name": "updatedAt",
          "type": "uint256"
        }
      ],
      "stateMutability": "view",
      "type": "function"
    },
    {
      "inputs": [
        {
          "internalType": "bytes4",
          "name": "interfaceId",
          "type": "bytes4"
        }
      ],
      "name": "supportsInterface",
      "outputs": [
        {
          "internalType": "bool",
          "name": "",
          "type": "bool"
        }
      ],
      "stateMutability": "view",
      "type": "function"
    },
    {
      "inputs": [
        {
          "internalType": "uint256",
          "name": "_id",
          "type": "uint256"
        },
        {
          "internalType": "address",
          "name": "_newOwner",
          "type": "address"
        }
      ],
      "name": "transferShipment",
      "outputs": [],
      "stateMutability": "nonpayable",
      "type": "function"
    },
    {
      "inputs": [
        {
          "internalType": "uint256",
          "name": "_id",
          "type": "uint256"
        },
        {
          "internalType": "string",
          "name": "_newStatus",
          "type": "string"
        }
      ],
      "name": "updateShipmentStatus",
      "outputs": [],
      "stateMutability": "nonpayable",
      "type": "function"
    }
  ],
  "bytecode": "0x608060405234801561001057600080fd5b506100246000801b336101ff60201b60201c565b506100557fa49807205ce4d355092ef5a8a18f56e8913cf4a201fbe287825b095693c21775336101ff60201b60201c565b506100867fd1ae8bbdabd60d63e418b84f5ad6f9cba90092c9816d7724d85f0d4e4bea2c60336101ff60201b60201c565b506100ba7fa49807205ce4d355092ef5a8a18f56e8913cf4a201fbe287825b095693c217756000801b6102fc60201b60201c565b61010a7fd1ae8bbdabd60d63e418b84f5ad6f9cba90092c9816d7724d85f0d4e4bea2c607fa49807205ce4d355092ef5a8a18f56e8913cf4a201fbe287825b095693c217756102fc60201b60201c565b61015a7feefb95e842a3287179d933b4460be539a1d5af11aa8b325bb45c5c8dc92de4ed7fa49807205ce4d355092ef5a8a18f56e8913cf4a201fbe287825b095693c217756102fc60201b60201c565b6101aa7fddaa901e2fe3bda354fe0ede2785152d5c109282a613fe024a056a3e66c41bb37fa49807205ce4d355092ef5a8a18f56e8913cf4a201fbe287825b095693c217756102fc60201b60201c565b6101fa7f2a5f906c256a5d799494fcd066e1f6c077689de1cdb65052a1624de4bace99bf7fa49807205ce4d355092ef5a8a18f56e8913cf4a201fbe287825b095693c217756102fc60201b60201c565b6103ee565b6000610211838361035d60201b60201c565b6102f157600160008085815260200190815260200160002060000160008473ffffffffffffffffffffffffffffffffffffffff1673ffffffffffffffffffffffffffffffffffffffff16815260200190815260200160002060006101000a81548160ff02191690831515021790555061028e6103c760201b60201c565b73ffffffffffffffffffffffffffffffffffffffff168273ffffffffffffffffffffffffffffffffffffffff16847f2f8788117e7eff1d82e926ec794901d17c78024a50270940304540a733656f0d60405160405180910390a4600190506102f6565b600090505b92915050565b600061030d836103cf60201b60201c565b905081600080858152602001908152602001600020600101819055508181847fbd79b86ffe0ab8e8776151514217cd7cacd52c909f66475c3af44e129f0b00ff60405160405180910390a4505050565b600080600084815260200190815260200160002060000160008373ffffffffffffffffffffffffffffffffffffffff1673ffffffffffffffffffffffffffffffffffffffff16815260200190815260200160002060009054906101000a900460ff16905092915050565b600033905090565b6000806000838152602001908152602001600020600101549050919050565b613fc9806103fd6000396000f3fe608060405234801561001057600080fd5b50600436106101585760003560e01c80637792d35f116100c3578063a29508fc1161007c578063a29508fc14610408578063a9c38aad14610426578063aace20b714610444578063c0d3b67c14610462578063ce6ccfaf1461047e578063d547741f146104ae57610158565b80637792d35f1461032057806386e353681461035057806391d1485414610380578063965288b0146103b05780639b074a6f146103ce578063a217fddf146103ea57610158565b80632f2ff15d116101155780632f2ff15d1461025e5780633307602e1461027a57806336568abe146102985780634eabbe77146102b457806358a20b3b146102d257806375b238fc1461030257610158565b806301ffc9a71461015d578063092b37401461018d5780632115e7bf146101bd578063248a9ca3146101db578063291dcd4a1461020b5780632ac08a9314610227575b600080fd5b6101776004803603810190610172919061267a565b6104ca565b60405161018491906126c2565b60405180910390f35b6101a760048036038101906101a29190612713565b610544565b6040516101b491906128d7565b60405180910390f35b6101c561085b565b6040516101d29190612912565b60405180910390f35b6101f560048036038101906101f09190612959565b61087f565b6040516102029190612912565b60405180910390f35b610225600480360381019061022091906129b2565b61089e565b005b610241600480360381019061023c9190612713565b610dca565b604051610255989796959493929190612a5a565b60405180910390f35b61027860048036038101906102739190612ae6565b610f82565b005b610282611045565b60405161028f9190612bd5565b60405180910390f35b6102b260048036038101906102ad9190612ae6565b61109d565b005b6102bc611118565b6040516102c99190612912565b60405180910390f35b6102ec60048036038101906102e79190612713565b61113c565b6040516102f99190612cb9565b60405180910390f35b61030a611228565b6040516103179190612912565b60405180910390f35b61033a60048036038101906103359190612713565b61124c565b6040516103479190612cdb565b60405180910390f35b61036a60048036038101906103659190612cf6565b611270565b6040516103779190612d36565b60405180910390f35b61039a60048036038101906103959190612ae6565b611329565b6040516103a791906126c2565b60405180910390f35b6103b8611393565b6040516103c59190612912565b60405180910390f35b6103e860048036038101906103e39190612dbd565b6113b7565b005b6103f2611a8e565b6040516103ff9190612912565b60405180910390f35b610410611a95565b60405161041d9190612912565b60405180910390f35b61042e611ab9565b60405161043b9190612cdb565b60405180910390f35b61044c611ac3565b6040516104599190612cdb565b60405180910390f35b61047c60048036038101906104779190612e1d565b611ac9565b005b61049860048036038101906104939190612e91565b611fb8565b6040516104a59190612d36565b60405180910390f35b6104c860048036038101906104c39190612ae6565b612214565b005b60007f7965db0b000000000000000000000000000000000000000000000000000000007bffffffffffffffffffffffffffffffffffffffffffffffffffffffff1916827bffffffffffffffffffffffffffffffffffffffffffffffffffffffff1916148061053d575061053c826122d7565b5b9050919050565b61054c612591565b600073ffffffffffffffffffffffffffffffffffffffff166001600084815260200190815260200160002060020160009054906101000a900473ffffffffffffffffffffffffffffffffffffffff1673ffffffffffffffffffffffffffffffffffffffff16036105f1576040517f08c379a00000000000000000000000000000000000000000000000000000000081526004016105e890612f0a565b60405180910390fd5b60016000838152602001908152602001600020604051806101000160405290816000820154815260200160018201805461062a90612f59565b80601f016020809104026020016040519081016040528092919081815260200182805461065690612f59565b80156106a35780601f10610678576101008083540402835291602001916106a3565b820191906000526020600020905b81548152906001019060200180831161068657829003601f168201915b505050505081526020016002820160009054906101000a900473ffffffffffffffffffffffffffffffffffffffff1673ffffffffffffffffffffffffffffffffffffffff1673ffffffffffffffffffffffffffffffffffffffff1681526020016003820160009054906101000a900473ffffffffffffffffffffffffffffffffffffffff1673ffffffffffffffffffffffffffffffffffffffff1673ffffffffffffffffffffffffffffffffffffffff1681526020016004820160009054906101000a900473ffffffffffffffffffffffffffffffffffffffff1673ffffffffffffffffffffffffffffffffffffffff1673ffffffffffffffffffffffffffffffffffffffff1681526020016005820180546107be90612f59565b80601f01602080910402602001604051908101604052809291908181526020018280546107ea90612f59565b80156108375780601f1061080c57610100808354040283529160200191610837565b820191906000526020600020905b81548152906001019060200180831161081a57829003601f168201915b50505050508152602001600682015481526020016007820154815250509050919050565b7f2a5f906c256a5d799494fcd066e1f6c077689de1cdb65052a1624de4bace99bf81565b6000806000838152602001908152602001600020600101549050919050565b6000600160008481526020019081526020016000209050600073ffffffffffffffffffffffffffffffffffffffff168160020160009054906101000a900473ffffffffffffffffffffffffffffffffffffffff1673ffffffffffffffffffffffffffffffffffffffff1603610948576040517f08c379a000000000000000000000000000000000000000000000000000000000815260040161093f90612f0a565b60405180910390fd5b600073ffffffffffffffffffffffffffffffffffffffff168273ffffffffffffffffffffffffffffffffffffffff16036109b7576040517f08c379a00000000000000000000000000000000000000000000000000000000081526004016109ae90612fd6565b60405180910390fd5b8060040160009054906101000a900473ffffffffffffffffffffffffffffffffffffffff1673ffffffffffffffffffffffffffffffffffffffff163373ffffffffffffffffffffffffffffffffffffffff1614610a49576040517f08c379a0000000000000000000000000000000000000000000000000000000008152600401610a4090613042565b60405180910390fd5b600081600501604051610a5c9190613105565b60405180910390209050610a907feefb95e842a3287179d933b4460be539a1d5af11aa8b325bb45c5c8dc92de4ed33611329565b15610b18576040518060400160405280600a81526020017f50726f63657373696e6700000000000000000000000000000000000000000000815250805190602001208114610b13576040517f08c379a0000000000000000000000000000000000000000000000000000000008152600401610b0a9061318e565b60405180910390fd5b610c9f565b610b427fddaa901e2fe3bda354fe0ede2785152d5c109282a613fe024a056a3e66c41bb333611329565b15610bca576040518060400160405280600a81526020017f496e205472616e73697400000000000000000000000000000000000000000000815250805190602001208114610bc5576040517f08c379a0000000000000000000000000000000000000000000000000000000008152600401610bbc90613220565b60405180910390fd5b610c9e565b610bf47f2a5f906c256a5d799494fcd066e1f6c077689de1cdb65052a1624de4bace99bf33611329565b15610c34576040517f08c379a0000000000000000000000000000000000000000000000000000000008152600401610c2b906132b2565b60405180910390fd5b610c5e7fa49807205ce4d355092ef5a8a18f56e8913cf4a201fbe287825b095693c2177533611329565b610c9d576040517f08c379a0000000000000000000000000000000000000000000000000000000008152600401610c9490613344565b60405180910390fd5b5b5b6040518060400160405280600981526020017f44656c6976657265640000000000000000000000000000000000000000000000815250805190602001208103610d1d576040517f08c379a0000000000000000000000000000000000000000000000000000000008152600401610d14906133d6565b60405180910390fd5b60008260040160009054906101000a900473ffffffffffffffffffffffffffffffffffffffff169050838360040160006101000a81548173ffffffffffffffffffffffffffffffffffffffff021916908373ffffffffffffffffffffffffffffffffffffffff160217905550847ff93018b8b4bccae90eff1a45a9da1a2e27a277e2e578a67de10b89d4af5279d28286604051610dbb9291906133f6565b60405180910390a25050505050565b6001602052806000526040600020600091509050806000015490806001018054610df390612f59565b80601f0160208091040260200160405190810160405280929190818152602001828054610e1f90612f59565b8015610e6c5780601f10610e4157610100808354040283529160200191610e6c565b820191906000526020600020905b815481529060010190602001808311610e4f57829003601f168201915b5050505050908060020160009054906101000a900473ffffffffffffffffffffffffffffffffffffffff16908060030160009054906101000a900473ffffffffffffffffffffffffffffffffffffffff16908060040160009054906101000a900473ffffffffffffffffffffffffffffffffffffffff1690806005018054610ef390612f59565b80601f0160208091040260200160405190810160405280929190818152602001828054610f1f90612f59565b8015610f6c5780601f10610f4157610100808354040283529160200191610f6c565b820191906000526020600020905b815481529060010190602001808311610f4f57829003601f168201915b5050505050908060060154908060070154905088565b7fa49807205ce4d355092ef5a8a18f56e8913cf4a201fbe287825b095693c21775610fac81612341565b6000801b8303610ff1576040517f08c379a0000000000000000000000000000000000000000000000000000000008152600401610fe89061346b565b60405180910390fd5b610ffb8383612355565b50828273ffffffffffffffffffffffffffffffffffffffff167f0666448aae9b9c8249fd8213a35a9c10218a0eac2fb39b96ed90c67214c7e76160405160405180910390a3505050565b6060600480548060200260200160405190810160405280929190818152602001828054801561109357602002820191906000526020600020905b81548152602001906001019080831161107f575b5050505050905090565b6110a5612446565b73ffffffffffffffffffffffffffffffffffffffff168173ffffffffffffffffffffffffffffffffffffffff1614611109576040517f6697b23200000000000000000000000000000000000000000000000000000000815260040160405180910390fd5b611113828261244e565b505050565b7fddaa901e2fe3bda354fe0ede2785152d5c109282a613fe024a056a3e66c41bb381565b606060026000838152602001908152602001600020805480602002602001604051908101604052809291908181526020016000905b8282101561121d57838290600052602060002001805461119090612f59565b80601f01602080910402602001604051908101604052809291908181526020018280546111bc90612f59565b80156112095780601f106111de57610100808354040283529160200191611209565b820191906000526020600020905b8154815290600101906020018083116111ec57829003601f168201915b505050505081526020019060010190611171565b505050509050919050565b7fa49807205ce4d355092ef5a8a18f56e8913cf4a201fbe287825b095693c2177581565b6004818154811061125c57600080fd5b906000526020600020016000915090505481565b6002602052816000526040600020818154811061128c57600080fd5b906000526020600020016000915091505080546112a890612f59565b80601f01602080910402602001604051908101604052809291908181526020018280546112d490612f59565b80156113215780601f106112f657610100808354040283529160200191611321565b820191906000526020600020905b81548152906001019060200180831161130457829003601f168201915b505050505081565b600080600084815260200190815260200160002060000160008373ffffffffffffffffffffffffffffffffffffffff1673ffffffffffffffffffffffffffffffffffffffff16815260200190815260200160002060009054906101000a900460ff16905092915050565b7feefb95e842a3287179d933b4460be539a1d5af11aa8b325bb45c5c8dc92de4ed81565b6000600160008581526020019081526020016000209050600073ffffffffffffffffffffffffffffffffffffffff168160020160009054906101000a900473ffffffffffffffffffffffffffffffffffffffff1673ffffffffffffffffffffffffffffffffffffffff1603611461576040517f08c379a000000000000000000000000000000000000000000000000000000000815260040161145890612f0a565b60405180910390fd5b8060040160009054906101000a900473ffffffffffffffffffffffffffffffffffffffff1673ffffffffffffffffffffffffffffffffffffffff163373ffffffffffffffffffffffffffffffffffffffff16146114f3576040517f08c379a00000000000000000000000000000000000000000000000000000000081526004016114ea906134fd565b60405180910390fd5b6000816005016040516115069190613105565b6040518091039020905060008484604051611522929190613551565b604051809103902090506115567feefb95e842a3287179d933b4460be539a1d5af11aa8b325bb45c5c8dc92de4ed33611329565b15611625576040518060400160405280600781526020017f437265617465640000000000000000000000000000000000000000000000000081525080519060200120821480156115e157506040518060400160405280600a81526020017f50726f63657373696e67000000000000000000000000000000000000000000008152508051906020012081145b611620576040517f08c379a0000000000000000000000000000000000000000000000000000000008152600401611617906135dc565b60405180910390fd5b6119de565b61164f7fddaa901e2fe3bda354fe0ede2785152d5c109282a613fe024a056a3e66c41bb333611329565b1561171e576040518060400160405280600a81526020017f50726f63657373696e670000000000000000000000000000000000000000000081525080519060200120821480156116da57506040518060400160405280600a81526020017f496e205472616e736974000000000000000000000000000000000000000000008152508051906020012081145b611719576040517f08c379a00000000000000000000000000000000000000000000000000000000081526004016117109061366e565b60405180910390fd5b6119dd565b6117487f2a5f906c256a5d799494fcd066e1f6c077689de1cdb65052a1624de4bace99bf33611329565b15611817576040518060400160405280600a81526020017f496e205472616e7369740000000000000000000000000000000000000000000081525080519060200120821480156117d357506040518060400160405280600981526020017f44656c69766572656400000000000000000000000000000000000000000000008152508051906020012081145b611812576040517f08c379a000000000000000000000000000000000000000000000000000000000815260040161180990613700565b60405180910390fd5b6119dc565b6040518060400160405280600981526020017f43616e63656c6c656400000000000000000000000000000000000000000000008152508051906020012081036119a0576118847fa49807205ce4d355092ef5a8a18f56e8913cf4a201fbe287825b095693c2177533611329565b806118de57508260020160009054906101000a900473ffffffffffffffffffffffffffffffffffffffff1673ffffffffffffffffffffffffffffffffffffffff163373ffffffffffffffffffffffffffffffffffffffff16145b61191d576040517f08c379a00000000000000000000000000000000000000000000000000000000081526004016119149061376c565b60405180910390fd5b6040518060400160405280600781526020017f437265617465640000000000000000000000000000000000000000000000000081525080519060200120821461199b576040517f08c379a0000000000000000000000000000000000000000000000000000000008152600401611992906137fe565b60405180910390fd5b6119db565b6040517f08c379a00000000000000000000000000000000000000000000000000000000081526004016119d290613890565b60405180910390fd5b5b5b5b84848460050191826119f1929190613a96565b5042836007018190555060026000878152602001908152602001600020858590918060018154018082558091505060019003906000526020600020016000909192909192909192909192509182611a49929190613a96565b50857f47b148d7996e0aa1b18b5d8d036bba8bad87c71c731b99735620e1fb63da2d6d868633604051611a7e93929190613b93565b60405180910390a2505050505050565b6000801b81565b7fd1ae8bbdabd60d63e418b84f5ad6f9cba90092c9816d7724d85f0d4e4bea2c6081565b6000600354905090565b60035481565b7fd1ae8bbdabd60d63e418b84f5ad6f9cba90092c9816d7724d85f0d4e4bea2c60611af381612341565b600073ffffffffffffffffffffffffffffffffffffffff166001600087815260200190815260200160002060020160009054906101000a900473ffffffffffffffffffffffffffffffffffffffff1673ffffffffffffffffffffffffffffffffffffffff1614611b98576040517f08c379a0000000000000000000000000000000000000000000000000000000008152600401611b8f90613c11565b60405180910390fd5b600073ffffffffffffffffffffffffffffffffffffffff168273ffffffffffffffffffffffffffffffffffffffff1603611c07576040517f08c379a0000000000000000000000000000000000000000000000000000000008152600401611bfe90613c7d565b60405180910390fd5b60008484905011611c4d576040517f08c379a0000000000000000000000000000000000000000000000000000000008152600401611c4490613ce9565b60405180910390fd5b60008511611c90576040517f08c379a0000000000000000000000000000000000000000000000000000000008152600401611c8790613d55565b60405180910390fd5b60405180610100016040528086815260200185858080601f016020809104026020016040519081016040528093929190818152602001838380828437600081840152601f19601f8201169050808301925050505050505081526020013373ffffffffffffffffffffffffffffffffffffffff1681526020018373ffffffffffffffffffffffffffffffffffffffff1681526020018373ffffffffffffffffffffffffffffffffffffffff1681526020016040518060400160405280600781526020017f437265617465640000000000000000000000000000000000000000000000000081525081526020014281526020014281525060016000878152602001908152602001600020600082015181600001556020820151816001019081611db79190613d75565b5060408201518160020160006101000a81548173ffffffffffffffffffffffffffffffffffffffff021916908373ffffffffffffffffffffffffffffffffffffffff16021790555060608201518160030160006101000a81548173ffffffffffffffffffffffffffffffffffffffff021916908373ffffffffffffffffffffffffffffffffffffffff16021790555060808201518160040160006101000a81548173ffffffffffffffffffffffffffffffffffffffff021916908373ffffffffffffffffffffffffffffffffffffffff16021790555060a0820151816005019081611ea29190613d75565b5060c0820151816006015560e082015181600701559050506002600086815260200190815260200160002080600181540180825580915050600190039060005260206000200160006040518060400160405280600781526020017f437265617465640000000000000000000000000000000000000000000000000081525090919091509081611f319190613d75565b50600485908060018154018082558091505060019003906000526020600020016000909190919091505560036000815480929190611f6e90613e76565b9190505550847f6f5c2b37a370e19bf568c2051666309961b5f579820bd82d9a14956bdc2f68fe85853386604051611fa99493929190613ebe565b60405180910390a25050505050565b6060611fe47fa49807205ce4d355092ef5a8a18f56e8913cf4a201fbe287825b095693c2177583611329565b15612026576040518060400160405280600581526020017f61646d696e000000000000000000000000000000000000000000000000000000815250905061220f565b6120507fd1ae8bbdabd60d63e418b84f5ad6f9cba90092c9816d7724d85f0d4e4bea2c6083611329565b15612092576040518060400160405280600881526020017f737570706c696572000000000000000000000000000000000000000000000000815250905061220f565b6120bc7feefb95e842a3287179d933b4460be539a1d5af11aa8b325bb45c5c8dc92de4ed83611329565b156120fe576040518060400160405280600c81526020017f6d616e7566616374757265720000000000000000000000000000000000000000815250905061220f565b6121287fddaa901e2fe3bda354fe0ede2785152d5c109282a613fe024a056a3e66c41bb383611329565b1561216a576040518060400160405280600b81526020017f7472616e73706f72746572000000000000000000000000000000000000000000815250905061220f565b6121947f2a5f906c256a5d799494fcd066e1f6c077689de1cdb65052a1624de4bace99bf83611329565b156121d6576040518060400160405280600881526020017f72657461696c6572000000000000000000000000000000000000000000000000815250905061220f565b6040518060400160405280600581526020017f677565737400000000000000000000000000000000000000000000000000000081525090505b919050565b7fa49807205ce4d355092ef5a8a18f56e8913cf4a201fbe287825b095693c2177561223e81612341565b6000801b8303612283576040517f08c379a000000000000000000000000000000000000000000000000000000000815260040161227a90613f4a565b60405180910390fd5b61228d838361244e565b50828273ffffffffffffffffffffffffffffffffffffffff167fea83a7caef01824e96446a8c4bc8ff4669edd99e129b53e32c077f85d216808160405160405180910390a3505050565b60007f01ffc9a7000000000000000000000000000000000000000000000000000000007bffffffffffffffffffffffffffffffffffffffffffffffffffffffff1916827bffffffffffffffffffffffffffffffffffffffffffffffffffffffff1916149050919050565b6123528161234d612446565b612540565b50565b60006123618383611329565b61243b57600160008085815260200190815260200160002060000160008473ffffffffffffffffffffffffffffffffffffffff1673ffffffffffffffffffffffffffffffffffffffff16815260200190815260200160002060006101000a81548160ff0219169083151502179055506123d8612446565b73ffffffffffffffffffffffffffffffffffffffff168273ffffffffffffffffffffffffffffffffffffffff16847f2f8788117e7eff1d82e926ec794901d17c78024a50270940304540a733656f0d60405160405180910390a460019050612440565b600090505b92915050565b600033905090565b600061245a8383611329565b1561253557600080600085815260200190815260200160002060000160008473ffffffffffffffffffffffffffffffffffffffff1673ffffffffffffffffffffffffffffffffffffffff16815260200190815260200160002060006101000a81548160ff0219169083151502179055506124d2612446565b73ffffffffffffffffffffffffffffffffffffffff168273ffffffffffffffffffffffffffffffffffffffff16847ff6391f5c32d9c69d2a47ea670b442974b53935d1edc7fd64eb21e047a839171b60405160405180910390a46001905061253a565b600090505b92915050565b61254a8282611329565b61258d5780826040517fe2517d3f000000000000000000000000000000000000000000000000000000008152600401612584929190613f6a565b60405180910390fd5b5050565b6040518061010001604052806000815260200160608152602001600073ffffffffffffffffffffffffffffffffffffffff168152602001600073ffffffffffffffffffffffffffffffffffffffff168152602001600073ffffffffffffffffffffffffffffffffffffffff1681526020016060815260200160008152602001600081525090565b600080fd5b600080fd5b60007fffffffff0000000000000000000000000000000000000000000000000000000082169050919050565b61265781612622565b811461266257600080fd5b50565b6000813590506126748161264e565b92915050565b6000602082840312156126905761268f612618565b5b600061269e84828501612665565b91505092915050565b60008115159050919050565b6126bc816126a7565b82525050565b60006020820190506126d760008301846126b3565b92915050565b6000819050919050565b6126f0816126dd565b81146126fb57600080fd5b50565b60008135905061270d816126e7565b92915050565b60006020828403121561272957612728612618565b5b6000612737848285016126fe565b91505092915050565b612749816126dd565b82525050565b600081519050919050565b600082825260208201905092915050565b60005b8381101561278957808201518184015260208101905061276e565b60008484015250505050565b6000601f19601f8301169050919050565b60006127b18261274f565b6127bb818561275a565b93506127cb81856020860161276b565b6127d481612795565b840191505092915050565b600073ffffffffffffffffffffffffffffffffffffffff82169050919050565b600061280a826127df565b9050919050565b61281a816127ff565b82525050565b6000610100830160008301516128396000860182612740565b506020830151848203602086015261285182826127a6565b91505060408301516128666040860182612811565b5060608301516128796060860182612811565b50608083015161288c6080860182612811565b5060a083015184820360a08601526128a482826127a6565b91505060c08301516128b960c0860182612740565b5060e08301516128cc60e0860182612740565b508091505092915050565b600060208201905081810360008301526128f18184612820565b905092915050565b6000819050919050565b61290c816128f9565b82525050565b60006020820190506129276000830184612903565b92915050565b612936816128f9565b811461294157600080fd5b50565b6000813590506129538161292d565b92915050565b60006020828403121561296f5761296e612618565b5b600061297d84828501612944565b91505092915050565b61298f816127ff565b811461299a57600080fd5b50565b6000813590506129ac81612986565b92915050565b600080604083850312156129c9576129c8612618565b5b60006129d7858286016126fe565b92505060206129e88582860161299d565b9150509250929050565b6129fb816126dd565b82525050565b600082825260208201905092915050565b6000612a1d8261274f565b612a278185612a01565b9350612a3781856020860161276b565b612a4081612795565b840191505092915050565b612a54816127ff565b82525050565b600061010082019050612a70600083018b6129f2565b8181036020830152612a82818a612a12565b9050612a916040830189612a4b565b612a9e6060830188612a4b565b612aab6080830187612a4b565b81810360a0830152612abd8186612a12565b9050612acc60c08301856129f2565b612ad960e08301846129f2565b9998505050505050505050565b60008060408385031215612afd57612afc612618565b5b6000612b0b85828601612944565b9250506020612b1c8582860161299d565b9150509250929050565b600081519050919050565b600082825260208201905092915050565b6000819050602082019050919050565b6000612b5e8383612740565b60208301905092915050565b6000602082019050919050565b6000612b8282612b26565b612b8c8185612b31565b9350612b9783612b42565b8060005b83811015612bc8578151612baf8882612b52565b9750612bba83612b6a565b925050600181019050612b9b565b5085935050505092915050565b60006020820190508181036000830152612bef8184612b77565b905092915050565b600081519050919050565b600082825260208201905092915050565b6000819050602082019050919050565b6000612c2f83836127a6565b905092915050565b6000602082019050919050565b6000612c4f82612bf7565b612c598185612c02565b935083602082028501612c6b85612c13565b8060005b85811015612ca75784840389528151612c888582612c23565b9450612c9383612c37565b925060208a01995050600181019050612c6f565b50829750879550505050505092915050565b60006020820190508181036000830152612cd38184612c44565b905092915050565b6000602082019050612cf060008301846129f2565b92915050565b60008060408385031215612d0d57612d0c612618565b5b6000612d1b858286016126fe565b9250506020612d2c858286016126fe565b9150509250929050565b60006020820190508181036000830152612d508184612a12565b905092915050565b600080fd5b600080fd5b600080fd5b60008083601f840112612d7d57612d7c612d58565b5b8235905067ffffffffffffffff811115612d9a57612d99612d5d565b5b602083019150836001820283011115612db657612db5612d62565b5b9250929050565b600080600060408486031215612dd657612dd5612618565b5b6000612de4868287016126fe565b935050602084013567ffffffffffffffff811115612e0557612e0461261d565b5b612e1186828701612d67565b92509250509250925092565b60008060008060608587031215612e3757612e36612618565b5b6000612e45878288016126fe565b945050602085013567ffffffffffffffff811115612e6657612e6561261d565b5b612e7287828801612d67565b93509350506040612e858782880161299d565b91505092959194509250565b600060208284031215612ea757612ea6612618565b5b6000612eb58482850161299d565b91505092915050565b7f536869706d656e7420646f65736e277420657869737400000000000000000000600082015250565b6000612ef4601683612a01565b9150612eff82612ebe565b602082019050919050565b60006020820190508181036000830152612f2381612ee7565b9050919050565b7f4e487b7100000000000000000000000000000000000000000000000000000000600052602260045260246000fd5b60006002820490506001821680612f7157607f821691505b602082108103612f8457612f83612f2a565b5b50919050565b7f496e76616c6964206e6577206f776e6572206164647265737300000000000000600082015250565b6000612fc0601983612a01565b9150612fcb82612f8a565b602082019050919050565b60006020820190508181036000830152612fef81612fb3565b9050919050565b7f4f6e6c792063757272656e74206f776e65722063616e207472616e7366657200600082015250565b600061302c601f83612a01565b915061303782612ff6565b602082019050919050565b6000602082019050818103600083015261305b8161301f565b9050919050565b600081905092915050565b60008190508160005260206000209050919050565b6000815461308f81612f59565b6130998186613062565b945060018216600081146130b457600181146130c9576130fc565b60ff19831686528115158202860193506130fc565b6130d28561306d565b60005b838110156130f4578154818901526001820191506020810190506130d5565b838801955050505b50505092915050565b60006131118284613082565b915081905092915050565b7f4d616e7566616374757265723a205365742073746174757320746f202750726f60008201527f63657373696e6727206265666f7265207472616e7366657272696e6700000000602082015250565b6000613178603c83612a01565b91506131838261311c565b604082019050919050565b600060208201905081810360008301526131a78161316b565b9050919050565b7f5472616e73706f727465723a205365742073746174757320746f2027496e205460008201527f72616e73697427206265666f7265207472616e7366657272696e670000000000602082015250565b600061320a603b83612a01565b9150613215826131ae565b604082019050919050565b60006020820190508181036000830152613239816131fd565b9050919050565b7f52657461696c65722063616e6e6f74207472616e73666572207468652073686960008201527f706d656e74000000000000000000000000000000000000000000000000000000602082015250565b600061329c602583612a01565b91506132a782613240565b604082019050919050565b600060208201905081810360008301526132cb8161328f565b9050919050565b7f596f7520617265206e6f7420617574686f72697a656420746f207472616e736660008201527f6572207468697320736869706d656e7400000000000000000000000000000000602082015250565b600061332e603083612a01565b9150613339826132d2565b604082019050919050565b6000602082019050818103600083015261335d81613321565b9050919050565b7f43616e6e6f74207472616e7366657220612064656c697665726564207368697060008201527f6d656e7400000000000000000000000000000000000000000000000000000000602082015250565b60006133c0602483612a01565b91506133cb82613364565b604082019050919050565b600060208201905081810360008301526133ef816133b3565b9050919050565b600060408201905061340b6000830185612a4b565b6134186020830184612a4b565b9392505050565b7f43616e6e6f74206772616e742044454641554c545f41444d494e5f524f4c4500600082015250565b6000613455601f83612a01565b91506134608261341f565b602082019050919050565b6000602082019050818103600083015261348481613448565b9050919050565b7f4e6f7420617574686f72697a65643a204f6e6c79207468652063757272656e7460008201527f206f776e65722063616e20757064617465207374617475730000000000000000602082015250565b60006134e7603883612a01565b91506134f28261348b565b604082019050919050565b60006020820190508181036000830152613516816134da565b9050919050565b82818337600083830152505050565b60006135388385613062565b935061354583858461351d565b82840190509392505050565b600061355e82848661352c565b91508190509392505050565b7f4d616e7566616374757265722063616e206f6e6c79207365742073746174757360008201527f20746f202750726f63657373696e672700000000000000000000000000000000602082015250565b60006135c6603083612a01565b91506135d18261356a565b604082019050919050565b600060208201905081810360008301526135f5816135b9565b9050919050565b7f5472616e73706f727465722063616e206f6e6c7920736574207374617475732060008201527f746f2027496e205472616e736974270000000000000000000000000000000000602082015250565b6000613658602f83612a01565b9150613663826135fc565b604082019050919050565b600060208201905081810360008301526136878161364b565b9050919050565b7f52657461696c65722063616e206f6e6c79207365742073746174757320746f2060008201527f2744656c69766572656427000000000000000000000000000000000000000000602082015250565b60006136ea602b83612a01565b91506136f58261368e565b604082019050919050565b60006020820190508181036000830152613719816136dd565b9050919050565b7f4f6e6c792041646d696e206f722053656e6465722063616e2063616e63656c00600082015250565b6000613756601f83612a01565b915061376182613720565b602082019050919050565b6000602082019050818103600083015261378581613749565b9050919050565b7f43616e206f6e6c792063616e63656c20696e202743726561746564272073746160008201527f7465000000000000000000000000000000000000000000000000000000000000602082015250565b60006137e8602283612a01565b91506137f38261378c565b604082019050919050565b60006020820190508181036000830152613817816137db565b9050919050565b7f596f757220726f6c65206973206e6f7420617574686f72697a656420746f207360008201527f6574207468697320737461747573000000000000000000000000000000000000602082015250565b600061387a602e83612a01565b91506138858261381e565b604082019050919050565b600060208201905081810360008301526138a98161386d565b9050919050565b600082905092915050565b7f4e487b7100000000000000000000000000000000000000000000000000000000600052604160045260246000fd5b60008190508160005260206000209050919050565b60006020601f8301049050919050565b600082821b905092915050565b60006008830261394c7fffffffffffffffffffffffffffffffffffffffffffffffffffffffffffffffff8261390f565b613956868361390f565b95508019841693508086168417925050509392505050565b6000819050919050565b600061399361398e613989846126dd565b61396e565b6126dd565b9050919050565b6000819050919050565b6139ad83613978565b6139c16139b98261399a565b84845461391c565b825550505050565b600090565b6139d66139c9565b6139e18184846139a4565b505050565b5b81811015613a05576139fa6000826139ce565b6001810190506139e7565b5050565b601f821115613a4a57613a1b816138ea565b613a24846138ff565b81016020851015613a33578190505b613a47613a3f856138ff565b8301826139e6565b50505b505050565b600082821c905092915050565b6000613a6d60001984600802613a4f565b1980831691505092915050565b6000613a868383613a5c565b9150826002028217905092915050565b613aa083836138b0565b67ffffffffffffffff811115613ab957613ab86138bb565b5b613ac38254612f59565b613ace828285613a09565b6000601f831160018114613afd5760008415613aeb578287013590505b613af58582613a7a565b865550613b5d565b601f198416613b0b866138ea565b60005b82811015613b3357848901358255600182019150602085019450602081019050613b0e565b86831015613b505784890135613b4c601f891682613a5c565b8355505b6001600288020188555050505b50505050505050565b6000613b728385612a01565b9350613b7f83858461351d565b613b8883612795565b840190509392505050565b60006040820190508181036000830152613bae818587613b66565b9050613bbd6020830184612a4b565b949350505050565b7f536869706d656e7420494420616c726561647920657869737473000000000000600082015250565b6000613bfb601a83612a01565b9150613c0682613bc5565b602082019050919050565b60006020820190508181036000830152613c2a81613bee565b9050919050565b7f496e76616c696420726563656976657220616464726573730000000000000000600082015250565b6000613c67601883612a01565b9150613c7282613c31565b602082019050919050565b60006020820190508181036000830152613c9681613c5a565b9050919050565b7f50726f64756374206e616d652063616e6e6f7420626520656d70747900000000600082015250565b6000613cd3601c83612a01565b9150613cde82613c9d565b602082019050919050565b60006020820190508181036000830152613d0281613cc6565b9050919050565b7f496e76616c696420736869706d656e7420494400000000000000000000000000600082015250565b6000613d3f601383612a01565b9150613d4a82613d09565b602082019050919050565b60006020820190508181036000830152613d6e81613d32565b9050919050565b613d7e8261274f565b67ffffffffffffffff811115613d9757613d966138bb565b5b613da18254612f59565b613dac828285613a09565b600060209050601f831160018114613ddf5760008415613dcd578287015190505b613dd78582613a7a565b865550613e3f565b601f198416613ded866138ea565b60005b82811015613e1557848901518255600182019150602085019450602081019050613df0565b86831015613e325784890151613e2e601f891682613a5c565b8355505b6001600288020188555050505b505050505050565b7f4e487b7100000000000000000000000000000000000000000000000000000000600052601160045260246000fd5b6000613e81826126dd565b91507fffffffffffffffffffffffffffffffffffffffffffffffffffffffffffffffff8203613eb357613eb2613e47565b5b600182019050919050565b60006060820190508181036000830152613ed9818688613b66565b9050613ee86020830185612a4b565b613ef56040830184612a4b565b95945050505050565b7f43616e6e6f74207265766f6b652044454641554c545f41444d494e5f524f4c45600082015250565b6000613f34602083612a01565b9150613f3f82613efe565b602082019050919050565b60006020820190508181036000830152613f6381613f27565b9050919050565b6000604082019050613f7f6000830185612a4b565b613f8c6020830184612903565b939250505056fea2646970667358221220101f93d56ff6c10ca3b530d31ea5e5cf51643cd549cc59976b72326f760d510764736f6c634300081c0033",
  "linkReferences": {},
  "deployedLinkReferences": {}
}